{
  "contractName": "SpaceRehab",
  "abi": [
    {
      "inputs": [],
      "stateMutability": "nonpayable",
      "type": "constructor"
    },
    {
      "anonymous": false,
      "inputs": [
        {
          "indexed": true,
          "internalType": "address",
          "name": "owner",
          "type": "address"
        },
        {
          "indexed": true,
          "internalType": "address",
          "name": "spender",
          "type": "address"
        },
        {
          "indexed": false,
          "internalType": "uint256",
          "name": "value",
          "type": "uint256"
        }
      ],
      "name": "Approval",
      "type": "event"
    },
    {
      "anonymous": false,
      "inputs": [
        {
          "indexed": false,
          "internalType": "uint256",
          "name": "minTokensBeforeSwap",
          "type": "uint256"
        }
      ],
      "name": "MinTokensBeforeSwapUpdated",
      "type": "event"
    },
    {
      "anonymous": false,
      "inputs": [
        {
          "indexed": true,
          "internalType": "address",
          "name": "previousOwner",
          "type": "address"
        },
        {
          "indexed": true,
          "internalType": "address",
          "name": "newOwner",
          "type": "address"
        }
      ],
      "name": "OwnershipTransferred",
      "type": "event"
    },
    {
      "anonymous": false,
      "inputs": [
        {
          "indexed": false,
          "internalType": "uint256",
          "name": "tokensSwapped",
          "type": "uint256"
        },
        {
          "indexed": false,
          "internalType": "uint256",
          "name": "ethReceived",
          "type": "uint256"
        },
        {
          "indexed": false,
          "internalType": "uint256",
          "name": "tokensIntoLiqudity",
          "type": "uint256"
        }
      ],
      "name": "SwapAndLiquify",
      "type": "event"
    },
    {
      "anonymous": false,
      "inputs": [
        {
          "indexed": false,
          "internalType": "bool",
          "name": "enabled",
          "type": "bool"
        }
      ],
      "name": "SwapAndLiquifyEnabledUpdated",
      "type": "event"
    },
    {
      "anonymous": false,
      "inputs": [
        {
          "indexed": true,
          "internalType": "address",
          "name": "from",
          "type": "address"
        },
        {
          "indexed": true,
          "internalType": "address",
          "name": "to",
          "type": "address"
        },
        {
          "indexed": false,
          "internalType": "uint256",
          "name": "value",
          "type": "uint256"
        }
      ],
      "name": "Transfer",
      "type": "event"
    },
    {
      "inputs": [],
      "name": "_burnFee",
      "outputs": [
        {
          "internalType": "uint256",
          "name": "",
          "type": "uint256"
        }
      ],
      "stateMutability": "view",
      "type": "function",
      "constant": true
    },
    {
      "inputs": [],
      "name": "_liquidityFee",
      "outputs": [
        {
          "internalType": "uint256",
          "name": "",
          "type": "uint256"
        }
      ],
      "stateMutability": "view",
      "type": "function",
      "constant": true
    },
    {
      "inputs": [],
      "name": "_marketingFee",
      "outputs": [
        {
          "internalType": "uint256",
          "name": "",
          "type": "uint256"
        }
      ],
      "stateMutability": "view",
      "type": "function",
      "constant": true
    },
    {
      "inputs": [],
      "name": "_marketingWallet",
      "outputs": [
        {
          "internalType": "address",
          "name": "",
          "type": "address"
        }
      ],
      "stateMutability": "view",
      "type": "function",
      "constant": true
    },
    {
      "inputs": [],
      "name": "_maxTxAmount",
      "outputs": [
        {
          "internalType": "uint256",
          "name": "",
          "type": "uint256"
        }
      ],
      "stateMutability": "view",
      "type": "function",
      "constant": true
    },
    {
      "inputs": [],
      "name": "_taxFee",
      "outputs": [
        {
          "internalType": "uint256",
          "name": "",
          "type": "uint256"
        }
      ],
      "stateMutability": "view",
      "type": "function",
      "constant": true
    },
    {
      "inputs": [],
      "name": "owner",
      "outputs": [
        {
          "internalType": "address",
          "name": "",
          "type": "address"
        }
      ],
      "stateMutability": "view",
      "type": "function",
      "constant": true
    },
    {
      "inputs": [],
      "name": "renounceOwnership",
      "outputs": [],
      "stateMutability": "nonpayable",
      "type": "function"
    },
    {
      "inputs": [],
      "name": "swapAndLiquifyEnabled",
      "outputs": [
        {
          "internalType": "bool",
          "name": "",
          "type": "bool"
        }
      ],
      "stateMutability": "view",
      "type": "function",
      "constant": true
    },
    {
      "inputs": [
        {
          "internalType": "address",
          "name": "newOwner",
          "type": "address"
        }
      ],
      "name": "transferOwnership",
      "outputs": [],
      "stateMutability": "nonpayable",
      "type": "function"
    },
    {
      "inputs": [],
      "name": "uniswapV2Pair",
      "outputs": [
        {
          "internalType": "address",
          "name": "",
          "type": "address"
        }
      ],
      "stateMutability": "view",
      "type": "function",
      "constant": true
    },
    {
      "inputs": [],
      "name": "uniswapV2Router",
      "outputs": [
        {
          "internalType": "contract IUniswapV2Router02",
          "name": "",
          "type": "address"
        }
      ],
      "stateMutability": "view",
      "type": "function",
      "constant": true
    },
    {
      "stateMutability": "payable",
      "type": "receive",
      "payable": true
    },
    {
      "inputs": [],
      "name": "name",
      "outputs": [
        {
          "internalType": "string",
          "name": "",
          "type": "string"
        }
      ],
      "stateMutability": "view",
      "type": "function",
      "constant": true
    },
    {
      "inputs": [],
      "name": "symbol",
      "outputs": [
        {
          "internalType": "string",
          "name": "",
          "type": "string"
        }
      ],
      "stateMutability": "view",
      "type": "function",
      "constant": true
    },
    {
      "inputs": [],
      "name": "decimals",
      "outputs": [
        {
          "internalType": "uint8",
          "name": "",
          "type": "uint8"
        }
      ],
      "stateMutability": "view",
      "type": "function",
      "constant": true
    },
    {
      "inputs": [],
      "name": "totalSupply",
      "outputs": [
        {
          "internalType": "uint256",
          "name": "",
          "type": "uint256"
        }
      ],
      "stateMutability": "view",
      "type": "function",
      "constant": true
    },
    {
      "inputs": [
        {
          "internalType": "address",
          "name": "account",
          "type": "address"
        }
      ],
      "name": "balanceOf",
      "outputs": [
        {
          "internalType": "uint256",
          "name": "",
          "type": "uint256"
        }
      ],
      "stateMutability": "view",
      "type": "function",
      "constant": true
    },
    {
      "inputs": [
        {
          "internalType": "address",
          "name": "recipient",
          "type": "address"
        },
        {
          "internalType": "uint256",
          "name": "amount",
          "type": "uint256"
        }
      ],
      "name": "transfer",
      "outputs": [
        {
          "internalType": "bool",
          "name": "",
          "type": "bool"
        }
      ],
      "stateMutability": "nonpayable",
      "type": "function"
    },
    {
      "inputs": [
        {
          "internalType": "address",
          "name": "owner",
          "type": "address"
        },
        {
          "internalType": "address",
          "name": "spender",
          "type": "address"
        }
      ],
      "name": "allowance",
      "outputs": [
        {
          "internalType": "uint256",
          "name": "",
          "type": "uint256"
        }
      ],
      "stateMutability": "view",
      "type": "function",
      "constant": true
    },
    {
      "inputs": [
        {
          "internalType": "address",
          "name": "spender",
          "type": "address"
        },
        {
          "internalType": "uint256",
          "name": "amount",
          "type": "uint256"
        }
      ],
      "name": "approve",
      "outputs": [
        {
          "internalType": "bool",
          "name": "",
          "type": "bool"
        }
      ],
      "stateMutability": "nonpayable",
      "type": "function"
    },
    {
      "inputs": [
        {
          "internalType": "address",
          "name": "sender",
          "type": "address"
        },
        {
          "internalType": "address",
          "name": "recipient",
          "type": "address"
        },
        {
          "internalType": "uint256",
          "name": "amount",
          "type": "uint256"
        }
      ],
      "name": "transferFrom",
      "outputs": [
        {
          "internalType": "bool",
          "name": "",
          "type": "bool"
        }
      ],
      "stateMutability": "nonpayable",
      "type": "function"
    },
    {
      "inputs": [
        {
          "internalType": "address",
          "name": "spender",
          "type": "address"
        },
        {
          "internalType": "uint256",
          "name": "addedValue",
          "type": "uint256"
        }
      ],
      "name": "increaseAllowance",
      "outputs": [
        {
          "internalType": "bool",
          "name": "",
          "type": "bool"
        }
      ],
      "stateMutability": "nonpayable",
      "type": "function"
    },
    {
      "inputs": [
        {
          "internalType": "address",
          "name": "spender",
          "type": "address"
        },
        {
          "internalType": "uint256",
          "name": "subtractedValue",
          "type": "uint256"
        }
      ],
      "name": "decreaseAllowance",
      "outputs": [
        {
          "internalType": "bool",
          "name": "",
          "type": "bool"
        }
      ],
      "stateMutability": "nonpayable",
      "type": "function"
    },
    {
      "inputs": [
        {
          "internalType": "address",
          "name": "account",
          "type": "address"
        }
      ],
      "name": "isExcludedFromReward",
      "outputs": [
        {
          "internalType": "bool",
          "name": "",
          "type": "bool"
        }
      ],
      "stateMutability": "view",
      "type": "function",
      "constant": true
    },
    {
      "inputs": [],
      "name": "totalFees",
      "outputs": [
        {
          "internalType": "uint256",
          "name": "",
          "type": "uint256"
        }
      ],
      "stateMutability": "view",
      "type": "function",
      "constant": true
    },
    {
      "inputs": [
        {
          "internalType": "uint256",
          "name": "tAmount",
          "type": "uint256"
        }
      ],
      "name": "deliver",
      "outputs": [],
      "stateMutability": "nonpayable",
      "type": "function"
    },
    {
      "inputs": [
        {
          "internalType": "uint256",
          "name": "tAmount",
          "type": "uint256"
        },
        {
          "internalType": "bool",
          "name": "deductTransferFee",
          "type": "bool"
        }
      ],
      "name": "reflectionFromToken",
      "outputs": [
        {
          "internalType": "uint256",
          "name": "",
          "type": "uint256"
        }
      ],
      "stateMutability": "view",
      "type": "function",
      "constant": true
    },
    {
      "inputs": [
        {
          "internalType": "uint256",
          "name": "rAmount",
          "type": "uint256"
        }
      ],
      "name": "tokenFromReflection",
      "outputs": [
        {
          "internalType": "uint256",
          "name": "",
          "type": "uint256"
        }
      ],
      "stateMutability": "view",
      "type": "function",
      "constant": true
    },
    {
      "inputs": [
        {
          "internalType": "address",
          "name": "account",
          "type": "address"
        }
      ],
      "name": "excludeFromReward",
      "outputs": [],
      "stateMutability": "nonpayable",
      "type": "function"
    },
    {
      "inputs": [
        {
          "internalType": "address",
          "name": "account",
          "type": "address"
        }
      ],
      "name": "includeInReward",
      "outputs": [],
      "stateMutability": "nonpayable",
      "type": "function"
    },
    {
      "inputs": [
        {
          "internalType": "address",
          "name": "account",
          "type": "address"
        }
      ],
      "name": "excludeFromFee",
      "outputs": [],
      "stateMutability": "nonpayable",
      "type": "function"
    },
    {
      "inputs": [
        {
          "internalType": "address",
          "name": "account",
          "type": "address"
        }
      ],
      "name": "includeInFee",
      "outputs": [],
      "stateMutability": "nonpayable",
      "type": "function"
    },
    {
      "inputs": [
        {
          "internalType": "uint256",
          "name": "taxFee",
          "type": "uint256"
        }
      ],
      "name": "setTaxFeePercent",
      "outputs": [],
      "stateMutability": "nonpayable",
      "type": "function"
    },
    {
      "inputs": [
        {
          "internalType": "uint256",
          "name": "liquidityFee",
          "type": "uint256"
        }
      ],
      "name": "setLiquidityFeePercent",
      "outputs": [],
      "stateMutability": "nonpayable",
      "type": "function"
    },
    {
      "inputs": [
        {
          "internalType": "uint256",
          "name": "marketingFee",
          "type": "uint256"
        }
      ],
      "name": "setMarketingFeePercent",
      "outputs": [],
      "stateMutability": "nonpayable",
      "type": "function"
    },
    {
      "inputs": [
        {
          "internalType": "uint256",
          "name": "burnFee",
          "type": "uint256"
        }
      ],
      "name": "setBurnFeePercent",
      "outputs": [],
      "stateMutability": "nonpayable",
      "type": "function"
    },
    {
      "inputs": [
        {
          "internalType": "uint256",
          "name": "maxTxPercent",
          "type": "uint256"
        }
      ],
      "name": "setMaxTxPercent",
      "outputs": [],
      "stateMutability": "nonpayable",
      "type": "function"
    },
    {
      "inputs": [
        {
          "internalType": "bool",
          "name": "_enabled",
          "type": "bool"
        }
      ],
      "name": "setSwapAndLiquifyEnabled",
      "outputs": [],
      "stateMutability": "nonpayable",
      "type": "function"
    },
    {
      "inputs": [
        {
          "internalType": "address",
          "name": "account",
          "type": "address"
        }
      ],
      "name": "isExcludedFromFee",
      "outputs": [
        {
          "internalType": "bool",
          "name": "",
          "type": "bool"
        }
      ],
      "stateMutability": "view",
      "type": "function",
      "constant": true
    }
  ],
  "bytecode": "0x60c060405260008054600160a81b60ff60a81b199091161760ff60b01b1916600960b01b179055600180547338997d5d1f3647317929a5605c2b2f6f92b72c6b6001600160a01b031990911617905569d3c21bcecceda100000060028190556000190660001903600355600460055560055460065560036007556007546008556001600955600954600a556002600b55600b54600c55620000cc6064620000b860016002546200095b60201b620019871790919060201c565b620009c260201b620019e71790919060201c565b600d55681b1ae4d6e2ef500000600e5560408051808201909152600b8082526a426168657220456361707360a81b6020909201918252620001109160159162000a9c565b506040805180820190915260068082526522a1a0a8299960d11b6020909201918252620001409160169162000a9c565b503480156200014e57600080fd5b5060006200015b62000a2b565b600080546001600160a01b0319166001600160a01b0383169081178255604051929350917f8be0079c531659141344cd1fd0a4f28419497f9722a3daafe3b4186f6b6457e0908290a350620001dd600954620001c96064600354620009c260201b620019e71790919060201c565b6200095b60201b620019871790919060201c565b6001546001600160a01b03166000908152600f60209081526040909120919091556009546003546200022192620001c99190606490620019e7620009c2821b17901c565b7312ddb96b0f18c0505590c53312d7f44b71545f69600052600f60209081527fe76671e23374823c8920c161749624e9ff4fb839a07d4bbd6a47f1050cd873e8919091556009546003546200028892620001c99190606490620019e7620009c2821b17901c565b73257039a01bc87849adf18d5db4e512117b8e9d48600052600f60209081527ffdbad70286055b4847747e4f0004d0ece232eb39399cf647afb1a411cebf310391909155600954600354620002ef92620001c99190606490620019e7620009c2821b17901c565b739cdbb6b7fae12a999ec95e97e3ba37547fb80d83600052600f60209081527f681bd5f224fd3a20e09c3c5620bc3094486cccb1950bcd0d3e5ef6351d48a75b919091556009546003546200035692620001c99190606490620019e7620009c2821b17901c565b738bcbc50cb947712eeade8613db156d82aeb547b1600052600f60209081527f8a907290e3f17214a26af05ee9e525b641039c959d5816caa1c8b53d69a4369391909155600354620003d991620003c291600591620001c99190606490620019e7620009c2821b17901c565b60035462000a2f60201b62001a4e1790919060201c565b600f6000620003e762000a2b565b6001600160a01b03166001600160a01b0316815260200190815260200160002081905550600073d99d1c33f9fc3444f8101754abc46c52416550d19050806001600160a01b031663c45a01556040518163ffffffff1660e01b815260040160206040518083038186803b1580156200045e57600080fd5b505afa15801562000473573d6000803e3d6000fd5b505050506040513d60208110156200048a57600080fd5b5051604080516315ab88c960e31b815290516001600160a01b039283169263c9c653969230929186169163ad5c464891600480820192602092909190829003018186803b158015620004db57600080fd5b505afa158015620004f0573d6000803e3d6000fd5b505050506040513d60208110156200050757600080fd5b5051604080516001600160e01b031960e086901b1681526001600160a01b0393841660048201529290911660248301525160448083019260209291908290030181600087803b1580156200055a57600080fd5b505af11580156200056f573d6000803e3d6000fd5b505050506040513d60208110156200058657600080fd5b50516001600160601b0319606091821b81166080529082901b1660a052600160116000620005b362000a8d565b6001600160a01b03908116825260208083019390935260409182016000908120805495151560ff1996871617905530815260119093528183208054851660019081179091558054909116835290822080548416821790557f089d171231fe1f4dc537c7564359c82afcf1d1f3b9bd8a3dddf8563b273cc54980548416821790557f1e7a862a2f1606c1a618f665b78c3ee7697b2bab740c16c2b4fde819f4fa3ca380548416821790557f9ba7ac004ac256cf36e47e06bb67dedcfdbde11fb97ce2f019c5a0ca6e8743478054841682179055738bcbc50cb947712eeade8613db156d82aeb547b19091527ff942eb2cbc54cfed74b986104c9f67381ad8d2836c59c58b490a261a94cc6b368054909216179055620006d062000a2b565b6001600160a01b031660006001600160a01b031660008051602062003b45833981519152620007326200071b6064620000b860056002546200095b60201b620019871790919060201c565b60025462000a2f60201b62001a4e1790919060201c565b60408051918252519081900360200190a36001546009546002546001600160a01b039092169160009160008051602062003b45833981519152916200078b91606491620000b8916200095b602090811b6200198717901c565b60408051918252519081900360200190a37312ddb96b0f18c0505590c53312d7f44b71545f696001600160a01b031660006001600160a01b031660008051602062003b45833981519152620007f96064620000b86009546002546200095b60201b620019871790919060201c565b60408051918252519081900360200190a373257039a01bc87849adf18d5db4e512117b8e9d486001600160a01b031660006001600160a01b031660008051602062003b45833981519152620008676064620000b86009546002546200095b60201b620019871790919060201c565b60408051918252519081900360200190a3739cdbb6b7fae12a999ec95e97e3ba37547fb80d836001600160a01b031660006001600160a01b031660008051602062003b45833981519152620008d56064620000b86009546002546200095b60201b620019871790919060201c565b60408051918252519081900360200190a3738bcbc50cb947712eeade8613db156d82aeb547b16001600160a01b031660006001600160a01b031660008051602062003b45833981519152620009436064620000b86009546002546200095b60201b620019871790919060201c565b60408051918252519081900360200190a35062000b38565b6000826200096c57506000620009bc565b828202828482816200097a57fe5b0414620009b95760405162461bcd60e51b815260040180806020018281038252602181526020018062003b246021913960400191505060405180910390fd5b90505b92915050565b600080821162000a19576040805162461bcd60e51b815260206004820152601a60248201527f536166654d6174683a206469766973696f6e206279207a65726f000000000000604482015290519081900360640190fd5b81838162000a2357fe5b049392505050565b3390565b60008282111562000a87576040805162461bcd60e51b815260206004820152601e60248201527f536166654d6174683a207375627472616374696f6e206f766572666c6f770000604482015290519081900360640190fd5b50900390565b6000546001600160a01b031690565b828054600181600116156101000203166002900490600052602060002090601f016020900481019282601f1062000adf57805160ff191683800117855562000b0f565b8280016001018555821562000b0f579182015b8281111562000b0f57825182559160200191906001019062000af2565b5062000b1d92915062000b21565b5090565b5b8082111562000b1d576000815560010162000b22565b60805160601c60a05160601c612fa462000b8060003980610a82528061249c5280612554528061257b5280612661528061268852508061109c5280611d3f5250612fa46000f3fe6080604052600436106102a45760003560e01c806352390c021161016e578063962dfc75116100cb578063cea269581161007f578063dd62ed3e11610064578063dd62ed3e146108ac578063ea2f0b37146108e7578063f2fde38b1461091a576102ab565b8063cea2695814610858578063d543dbeb14610882576102ab565b8063a9059cbb116100b0578063a9059cbb146107de578063c0b0fda214610817578063c49b9a801461082c576102ab565b8063962dfc7514610790578063a457c2d7146107a5576102ab565b80637d1db4a5116101225780638da5cb5b116101075780638da5cb5b1461073c5780638ee88c531461075157806395d89b411461077b576102ab565b80637d1db4a5146106f457806388f8202014610709576102ab565b80636bc87c3a116101535780636bc87c3a1461069757806370a08231146106ac578063715018a6146106df576102ab565b806352390c02146106315780635342acb414610664576102ab565b8063313ce5671161021c578063437823ec116101d0578063457c194c116101b5578063457c194c146105dd57806349bd5a5e146106075780634a74bb021461061c576102ab565b8063437823ec146105785780634549b039146105ab576102ab565b8063395093511161020157806339509351146105005780633b124fe7146105395780633bd5d1731461054e576102ab565b8063313ce567146104a25780633685d419146104cd576102ab565b80631694505e1161027357806322976e0d1161025857806322976e0d1461042057806323b872dd146104355780632d83811914610478576102ab565b80631694505e146103da57806318160ddd1461040b576102ab565b8063061c82d0146102b057806306fdde03146102dc578063095ea7b31461036657806313114a9d146103b3576102ab565b366102ab57005b600080fd5b3480156102bc57600080fd5b506102da600480360360208110156102d357600080fd5b503561094d565b005b3480156102e857600080fd5b506102f16109c6565b6040805160208082528351818301528351919283929083019185019080838360005b8381101561032b578181015183820152602001610313565b50505050905090810190601f1680156103585780820380516001836020036101000a031916815260200191505b509250505060405180910390f35b34801561037257600080fd5b5061039f6004803603604081101561038957600080fd5b506001600160a01b038135169060200135610a5c565b604080519115158252519081900360200190f35b3480156103bf57600080fd5b506103c8610a7a565b60408051918252519081900360200190f35b3480156103e657600080fd5b506103ef610a80565b604080516001600160a01b039092168252519081900360200190f35b34801561041757600080fd5b506103c8610aa4565b34801561042c57600080fd5b506103c8610aaa565b34801561044157600080fd5b5061039f6004803603606081101561045857600080fd5b506001600160a01b03813581169160208101359091169060400135610ab0565b34801561048457600080fd5b506103c86004803603602081101561049b57600080fd5b5035610b37565b3480156104ae57600080fd5b506104b7610b99565b6040805160ff9092168252519081900360200190f35b3480156104d957600080fd5b506102da600480360360208110156104f057600080fd5b50356001600160a01b0316610bbc565b34801561050c57600080fd5b5061039f6004803603604081101561052357600080fd5b506001600160a01b038135169060200135610dc9565b34801561054557600080fd5b506103c8610e17565b34801561055a57600080fd5b506102da6004803603602081101561057157600080fd5b5035610e1d565b34801561058457600080fd5b506102da6004803603602081101561059b57600080fd5b50356001600160a01b0316610ef7565b3480156105b757600080fd5b506103c8600480360360408110156105ce57600080fd5b50803590602001351515610f8f565b3480156105e957600080fd5b506102da6004803603602081101561060057600080fd5b5035611021565b34801561061357600080fd5b506103ef61109a565b34801561062857600080fd5b5061039f6110be565b34801561063d57600080fd5b506102da6004803603602081101561065457600080fd5b50356001600160a01b03166110e0565b34801561067057600080fd5b5061039f6004803603602081101561068757600080fd5b50356001600160a01b031661129a565b3480156106a357600080fd5b506103c86112b8565b3480156106b857600080fd5b506103c8600480360360208110156106cf57600080fd5b50356001600160a01b03166112be565b3480156106eb57600080fd5b506102da611320565b34801561070057600080fd5b506103c86113f6565b34801561071557600080fd5b5061039f6004803603602081101561072c57600080fd5b50356001600160a01b03166113fc565b34801561074857600080fd5b506103ef61141a565b34801561075d57600080fd5b506102da6004803603602081101561077457600080fd5b5035611429565b34801561078757600080fd5b506102f16114a2565b34801561079c57600080fd5b506103ef611503565b3480156107b157600080fd5b5061039f600480360360408110156107c857600080fd5b506001600160a01b038135169060200135611512565b3480156107ea57600080fd5b5061039f6004803603604081101561080157600080fd5b506001600160a01b03813516906020013561157a565b34801561082357600080fd5b506103c861158e565b34801561083857600080fd5b506102da6004803603602081101561084f57600080fd5b50351515611594565b34801561086457600080fd5b506102da6004803603602081101561087b57600080fd5b5035611688565b34801561088e57600080fd5b506102da600480360360208110156108a557600080fd5b5035611701565b3480156108b857600080fd5b506103c8600480360360408110156108cf57600080fd5b506001600160a01b038135811691602001351661179b565b3480156108f357600080fd5b506102da6004803603602081101561090a57600080fd5b50356001600160a01b03166117c6565b34801561092657600080fd5b506102da6004803603602081101561093d57600080fd5b50356001600160a01b031661185b565b610955611aab565b6001600160a01b031661096661141a565b6001600160a01b0316146109c1576040805162461bcd60e51b815260206004820181905260248201527f4f776e61626c653a2063616c6c6572206973206e6f7420746865206f776e6572604482015290519081900360640190fd5b600555565b60158054604080516020601f6002600019610100600188161502019095169490940493840181900481028201810190925282815260609390929091830182828015610a525780601f10610a2757610100808354040283529160200191610a52565b820191906000526020600020905b815481529060010190602001808311610a3557829003601f168201915b5050505050905090565b6000610a70610a69611aab565b8484611aaf565b5060015b92915050565b60045490565b7f000000000000000000000000000000000000000000000000000000000000000081565b60025490565b60095481565b6000610abd848484611b9b565b610b2d84610ac9611aab565b610b2885604051806060016040528060288152602001612e84602891396001600160a01b038a16600090815260136020526040812090610b07611aab565b6001600160a01b031681526020810191909152604001600020549190611e0d565b611aaf565b5060019392505050565b6000600354821115610b7a5760405162461bcd60e51b815260040180806020018281038252602a815260200180612dc9602a913960400191505060405180910390fd5b6000610b84611ea4565b9050610b9083826119e7565b9150505b919050565b600054760100000000000000000000000000000000000000000000900460ff1690565b610bc4611aab565b6001600160a01b0316610bd561141a565b6001600160a01b031614610c30576040805162461bcd60e51b815260206004820181905260248201527f4f776e61626c653a2063616c6c6572206973206e6f7420746865206f776e6572604482015290519081900360640190fd5b6001600160a01b03811660009081526012602052604090205460ff16610c9d576040805162461bcd60e51b815260206004820152601b60248201527f4163636f756e7420697320616c7265616479206578636c756465640000000000604482015290519081900360640190fd5b60005b601454811015610dc557816001600160a01b031660148281548110610cc157fe5b6000918252602090912001546001600160a01b03161415610dbd57601480546000198101908110610cee57fe5b600091825260209091200154601480546001600160a01b039092169183908110610d1457fe5b600091825260208083209190910180547fffffffffffffffffffffffff0000000000000000000000000000000000000000166001600160a01b039485161790559184168152601082526040808220829055601290925220805460ff191690556014805480610d7e57fe5b600082815260209020810160001990810180547fffffffffffffffffffffffff0000000000000000000000000000000000000000169055019055610dc5565b600101610ca0565b5050565b6000610a70610dd6611aab565b84610b288560136000610de7611aab565b6001600160a01b03908116825260208083019390935260409182016000908120918c168152925290205490611ec7565b60055481565b6000610e27611aab565b6001600160a01b03811660009081526012602052604090205490915060ff1615610e825760405162461bcd60e51b815260040180806020018281038252602c815260200180612f1e602c913960400191505060405180910390fd5b6000610e8d83611f21565b505050506001600160a01b0384166000908152600f6020526040902054919250610eb991905082611a4e565b6001600160a01b0383166000908152600f6020526040902055600354610edf9082611a4e565b600355600454610eef9084611ec7565b600455505050565b610eff611aab565b6001600160a01b0316610f1061141a565b6001600160a01b031614610f6b576040805162461bcd60e51b815260206004820181905260248201527f4f776e61626c653a2063616c6c6572206973206e6f7420746865206f776e6572604482015290519081900360640190fd5b6001600160a01b03166000908152601160205260409020805460ff19166001179055565b6000600254831115610fe8576040805162461bcd60e51b815260206004820152601f60248201527f416d6f756e74206d757374206265206c657373207468616e20737570706c7900604482015290519081900360640190fd5b81611007576000610ff884611f21565b50939550610a74945050505050565b600061101284611f21565b50929550610a74945050505050565b611029611aab565b6001600160a01b031661103a61141a565b6001600160a01b031614611095576040805162461bcd60e51b815260206004820181905260248201527f4f776e61626c653a2063616c6c6572206973206e6f7420746865206f776e6572604482015290519081900360640190fd5b600955565b7f000000000000000000000000000000000000000000000000000000000000000081565b6000547501000000000000000000000000000000000000000000900460ff1681565b6110e8611aab565b6001600160a01b03166110f961141a565b6001600160a01b031614611154576040805162461bcd60e51b815260206004820181905260248201527f4f776e61626c653a2063616c6c6572206973206e6f7420746865206f776e6572604482015290519081900360640190fd5b6001600160a01b03811660009081526012602052604090205460ff16156111c2576040805162461bcd60e51b815260206004820152601b60248201527f4163636f756e7420697320616c7265616479206578636c756465640000000000604482015290519081900360640190fd5b6001600160a01b0381166000908152600f60205260409020541561121c576001600160a01b0381166000908152600f602052604090205461120290610b37565b6001600160a01b0382166000908152601060205260409020555b6001600160a01b03166000818152601260205260408120805460ff191660019081179091556014805491820181559091527fce6d7b5282bd9a3661ae061feed1dbda4e52ab073b1f9285be6e155d9c38d4ec0180547fffffffffffffffffffffffff0000000000000000000000000000000000000000169091179055565b6001600160a01b031660009081526011602052604090205460ff1690565b60075481565b6001600160a01b03811660009081526012602052604081205460ff16156112fe57506001600160a01b038116600090815260106020526040902054610b94565b6001600160a01b0382166000908152600f6020526040902054610a7490610b37565b611328611aab565b6001600160a01b031661133961141a565b6001600160a01b031614611394576040805162461bcd60e51b815260206004820181905260248201527f4f776e61626c653a2063616c6c6572206973206e6f7420746865206f776e6572604482015290519081900360640190fd5b600080546040516001600160a01b03909116907f8be0079c531659141344cd1fd0a4f28419497f9722a3daafe3b4186f6b6457e0908390a3600080547fffffffffffffffffffffffff0000000000000000000000000000000000000000169055565b600d5481565b6001600160a01b031660009081526012602052604090205460ff1690565b6000546001600160a01b031690565b611431611aab565b6001600160a01b031661144261141a565b6001600160a01b03161461149d576040805162461bcd60e51b815260206004820181905260248201527f4f776e61626c653a2063616c6c6572206973206e6f7420746865206f776e6572604482015290519081900360640190fd5b600755565b60168054604080516020601f6002600019610100600188161502019095169490940493840181900481028201810190925282815260609390929091830182828015610a525780601f10610a2757610100808354040283529160200191610a52565b6001546001600160a01b031681565b6000610a7061151f611aab565b84610b2885604051806060016040528060258152602001612f4a6025913960136000611549611aab565b6001600160a01b03908116825260208083019390935260409182016000908120918d16815292529020549190611e0d565b6000610a70611587611aab565b8484611b9b565b600b5481565b61159c611aab565b6001600160a01b03166115ad61141a565b6001600160a01b031614611608576040805162461bcd60e51b815260206004820181905260248201527f4f776e61626c653a2063616c6c6572206973206e6f7420746865206f776e6572604482015290519081900360640190fd5b60008054821515750100000000000000000000000000000000000000000081027fffffffffffffffffffff00ffffffffffffffffffffffffffffffffffffffffff9092169190911790915560408051918252517f53726dfcaf90650aa7eb35524f4d3220f07413c8d6cb404cc8c18bf5591bc1599181900360200190a150565b611690611aab565b6001600160a01b03166116a161141a565b6001600160a01b0316146116fc576040805162461bcd60e51b815260206004820181905260248201527f4f776e61626c653a2063616c6c6572206973206e6f7420746865206f776e6572604482015290519081900360640190fd5b600b55565b611709611aab565b6001600160a01b031661171a61141a565b6001600160a01b031614611775576040805162461bcd60e51b815260206004820181905260248201527f4f776e61626c653a2063616c6c6572206973206e6f7420746865206f776e6572604482015290519081900360640190fd5b611795606461178f8360025461198790919063ffffffff16565b906119e7565b600d5550565b6001600160a01b03918216600090815260136020908152604080832093909416825291909152205490565b6117ce611aab565b6001600160a01b03166117df61141a565b6001600160a01b03161461183a576040805162461bcd60e51b815260206004820181905260248201527f4f776e61626c653a2063616c6c6572206973206e6f7420746865206f776e6572604482015290519081900360640190fd5b6001600160a01b03166000908152601160205260409020805460ff19169055565b611863611aab565b6001600160a01b031661187461141a565b6001600160a01b0316146118cf576040805162461bcd60e51b815260206004820181905260248201527f4f776e61626c653a2063616c6c6572206973206e6f7420746865206f776e6572604482015290519081900360640190fd5b6001600160a01b0381166119145760405162461bcd60e51b8152600401808060200182810382526026815260200180612df36026913960400191505060405180910390fd5b600080546040516001600160a01b03808516939216917f8be0079c531659141344cd1fd0a4f28419497f9722a3daafe3b4186f6b6457e091a3600080547fffffffffffffffffffffffff0000000000000000000000000000000000000000166001600160a01b0392909216919091179055565b60008261199657506000610a74565b828202828482816119a357fe5b04146119e05760405162461bcd60e51b8152600401808060200182810382526021815260200180612e636021913960400191505060405180910390fd5b9392505050565b6000808211611a3d576040805162461bcd60e51b815260206004820152601a60248201527f536166654d6174683a206469766973696f6e206279207a65726f000000000000604482015290519081900360640190fd5b818381611a4657fe5b049392505050565b600082821115611aa5576040805162461bcd60e51b815260206004820152601e60248201527f536166654d6174683a207375627472616374696f6e206f766572666c6f770000604482015290519081900360640190fd5b50900390565b3390565b6001600160a01b038316611af45760405162461bcd60e51b8152600401808060200182810382526024815260200180612efa6024913960400191505060405180910390fd5b6001600160a01b038216611b395760405162461bcd60e51b8152600401808060200182810382526022815260200180612e196022913960400191505060405180910390fd5b6001600160a01b03808416600081815260136020908152604080832094871680845294825291829020859055815185815291517f8c5be1e5ebec7d5bd14f71427d1e84f3dd0314c0f7b2291e5b200ac8c7c3b9259281900390910190a3505050565b6001600160a01b038316611be05760405162461bcd60e51b8152600401808060200182810382526025815260200180612ed56025913960400191505060405180910390fd5b6001600160a01b038216611c255760405162461bcd60e51b8152600401808060200182810382526023815260200180612da66023913960400191505060405180910390fd5b60008111611c645760405162461bcd60e51b8152600401808060200182810382526029815260200180612eac6029913960400191505060405180910390fd5b611c6c61141a565b6001600160a01b0316836001600160a01b031614158015611ca65750611c9061141a565b6001600160a01b0316826001600160a01b031614155b15611cec57600d54811115611cec5760405162461bcd60e51b8152600401808060200182810382526028815260200180612e3b6028913960400191505060405180910390fd5b6000611cf7306112be565b9050600d548110611d075750600d545b600e5481108015908190611d36575060005474010000000000000000000000000000000000000000900460ff16155b8015611d7457507f00000000000000000000000000000000000000000000000000000000000000006001600160a01b0316856001600160a01b031614155b8015611d9b57506000547501000000000000000000000000000000000000000000900460ff165b15611dae57600e549150611dae82611f7d565b6001600160a01b03851660009081526011602052604090205460019060ff1680611df057506001600160a01b03851660009081526011602052604090205460ff165b15611df9575060005b611e0586868684612068565b505050505050565b60008184841115611e9c5760405162461bcd60e51b81526004018080602001828103825283818151815260200191508051906020019080838360005b83811015611e61578181015183820152602001611e49565b50505050905090810190601f168015611e8e5780820380516001836020036101000a031916815260200191505b509250505060405180910390fd5b505050900390565b6000806000611eb16121dc565b9092509050611ec082826119e7565b9250505090565b6000828201838110156119e0576040805162461bcd60e51b815260206004820152601b60248201527f536166654d6174683a206164646974696f6e206f766572666c6f770000000000604482015290519081900360640190fd5b6000806000806000611f31612d87565b600080611f3c612d87565b611f458a61233f565b9250925092506000806000611f638d8686611f5e611ea4565b6123ce565b919f909e50909c50959a5093985091965092945050505050565b600080547fffffffffffffffffffffff00ffffffffffffffffffffffffffffffffffffffff1674010000000000000000000000000000000000000000178155611fc78260026119e7565b90506000611fd58383611a4e565b905047611fe18361244c565b6000611fed4783611a4e565b9050611ff9838261265b565b604080518581526020810183905280820185905290517f17bbfb9a6069321b6ded73bd96327c9e6b7212a5cd51ff219cd61370acafb5619181900360600190a15050600080547fffffffffffffffffffffff00ffffffffffffffffffffffffffffffffffffffff169055505050565b8061207557612075612759565b6001600160a01b03841660009081526012602052604090205460ff1680156120b657506001600160a01b03831660009081526012602052604090205460ff16155b156120cb576120c68484846127a0565b6121c9565b6001600160a01b03841660009081526012602052604090205460ff1615801561210c57506001600160a01b03831660009081526012602052604090205460ff165b1561211c576120c68484846128e9565b6001600160a01b03841660009081526012602052604090205460ff1615801561215e57506001600160a01b03831660009081526012602052604090205460ff16155b1561216e576120c6848484612999565b6001600160a01b03841660009081526012602052604090205460ff1680156121ae57506001600160a01b03831660009081526012602052604090205460ff165b156121be576120c68484846129e4565b6121c9848484612999565b806121d6576121d6612a5e565b50505050565b6003546002546000918291825b60145481101561230d5782600f60006014848154811061220557fe5b60009182526020808320909101546001600160a01b03168352820192909252604001902054118061226a575081601060006014848154811061224357fe5b60009182526020808320909101546001600160a01b03168352820192909252604001902054115b15612281576003546002549450945050505061233b565b6122c1600f60006014848154811061229557fe5b60009182526020808320909101546001600160a01b031683528201929092526040019020548490611a4e565b925061230360106000601484815481106122d757fe5b60009182526020808320909101546001600160a01b031683528201929092526040019020548390611a4e565b91506001016121e9565b5060025460035461231d916119e7565b8210156123355760035460025493509350505061233b565b90925090505b9091565b60008061234a612d87565b600061235585612a78565b905061235f612d87565b600061236a87612a94565b9050600061237788612ab0565b9050600061238489612acc565b8385526020850183905260408501819052905060006123ad846123a78c89611a4e565b90611a4e565b90506123bd826123a78386611a4e565b9a9599509397509395505050505050565b60008080806123dd8886611987565b905060006123eb8887611987565b905060006124018789835b602002015190611987565b90506000612411888a60016123f6565b90506000612421898b60026123f6565b90506000612437826123a7858188818c8c611a4e565b959d959c50939a509398505050505050505050565b6040805160028082526060808301845292602083019080368337019050509050308160008151811061247a57fe5b60200260200101906001600160a01b031690816001600160a01b0316815250507f00000000000000000000000000000000000000000000000000000000000000006001600160a01b031663ad5c46486040518163ffffffff1660e01b815260040160206040518083038186803b1580156124f357600080fd5b505afa158015612507573d6000803e3d6000fd5b505050506040513d602081101561251d57600080fd5b505181518290600190811061252e57fe5b60200260200101906001600160a01b031690816001600160a01b031681525050612579307f000000000000000000000000000000000000000000000000000000000000000084611aaf565b7f00000000000000000000000000000000000000000000000000000000000000006001600160a01b031663791ac9478360008430426040518663ffffffff1660e01b81526004018086815260200185815260200180602001846001600160a01b03168152602001838152602001828103825285818151815260200191508051906020019060200280838360005b8381101561261e578181015183820152602001612606565b505050509050019650505050505050600060405180830381600087803b15801561264757600080fd5b505af1158015611e05573d6000803e3d6000fd5b612686307f000000000000000000000000000000000000000000000000000000000000000084611aaf565b7f00000000000000000000000000000000000000000000000000000000000000006001600160a01b031663f305d7198230856000806126c361141a565b426040518863ffffffff1660e01b815260040180876001600160a01b03168152602001868152602001858152602001848152602001836001600160a01b0316815260200182815260200196505050505050506060604051808303818588803b15801561272e57600080fd5b505af1158015612742573d6000803e3d6000fd5b50505050506040513d60608110156121d657600080fd5b6005541580156127695750600754155b156127735761279e565b600580546006556007805460085560098054600a55600b8054600c5560009384905591839055829055555b565b60008060008060006127b0612d87565b6127b987611f21565b6001600160a01b038f16600090815260106020526040902054959b509399509197509550935091506127eb9088611a4e565b6001600160a01b038a16600090815260106020908152604080832093909355600f9052205461281a9087611a4e565b6001600160a01b03808b166000908152600f602052604080822093909355908a16815220546128499086611ec7565b6001600160a01b0389166000908152600f6020526040902055805161286d90612ae8565b602081015161287b90612b71565b604081015161288990612c30565b6128938483612d63565b876001600160a01b0316896001600160a01b03167fddf252ad1be2c89b69c2b068fc378daa952ba7f163c4a11628f55a4df523b3ef856040518082815260200191505060405180910390a3505050505050505050565b60008060008060006128f9612d87565b61290287611f21565b6001600160a01b038f166000908152600f6020526040902054959b509399509197509550935091506129349087611a4e565b6001600160a01b03808b166000908152600f6020908152604080832094909455918b1681526010909152205461296a9084611ec7565b6001600160a01b038916600090815260106020908152604080832093909355600f905220546128499086611ec7565b60008060008060006129a9612d87565b6129b287611f21565b6001600160a01b038f166000908152600f6020526040902054959b5093995091975095509350915061281a9087611a4e565b60008060008060006129f4612d87565b6129fd87611f21565b6001600160a01b038f16600090815260106020526040902054959b50939950919750955093509150612a2f9088611a4e565b6001600160a01b038a16600090815260106020908152604080832093909355600f905220546129349087611a4e565b600654600555600854600755600a54600955600c54600b55565b6000610a74606461178f6005548561198790919063ffffffff16565b6000610a74606461178f6007548561198790919063ffffffff16565b6000610a74606461178f6009548561198790919063ffffffff16565b6000610a74606461178f600b548561198790919063ffffffff16565b6000612af2611ea4565b90506000612b008383611987565b306000908152600f6020526040902054909150612b1d9082611ec7565b306000908152600f602090815260408083209390935560129052205460ff1615612b6c5730600090815260106020526040902054612b5b9084611ec7565b306000908152601060205260409020555b505050565b6000612b7b611ea4565b90506000612b898383611987565b6001546001600160a01b03166000908152600f6020526040902054909150612bb19082611ec7565b600180546001600160a01b039081166000908152600f6020908152604080832095909555925490911681526012909152205460ff1615612b6c576001546001600160a01b0316600090815260106020526040902054612c109084611ec7565b6001546001600160a01b0316600090815260106020526040902055505050565b6000612c3a611ea4565b90506000612c488383611987565b60008052600f6020527ff4803e074bd026baaf6ed2e288c9515f68c72fb7216eebdd7cae1718a53ec37554909150612c809082611ec7565b60008052600f6020527ff4803e074bd026baaf6ed2e288c9515f68c72fb7216eebdd7cae1718a53ec37555600354612cb89082611a4e565b600355600254612cc89084611a4e565b6002556000805260126020527f7e7fa33969761a458e04f477e039a608702b4f924981d6653935a8319a08ad7b5460ff1615612b6c576000805260106020527f6e0956cda88cad152e89927e53611735b61a5c762d1428573c6931b0a5efcb0154612d339084611ec7565b6000805260106020527f6e0956cda88cad152e89927e53611735b61a5c762d1428573c6931b0a5efcb0155505050565b600354612d709083611a4e565b600355600454612d809082611ec7565b6004555050565b6040518060600160405280600390602082028036833750919291505056fe45524332303a207472616e7366657220746f20746865207a65726f2061646472657373416d6f756e74206d757374206265206c657373207468616e20746f74616c207265666c656374696f6e734f776e61626c653a206e6577206f776e657220697320746865207a65726f206164647265737345524332303a20617070726f766520746f20746865207a65726f20616464726573735472616e7366657220616d6f756e74206578636565647320746865206d61785478416d6f756e742e536166654d6174683a206d756c7469706c69636174696f6e206f766572666c6f7745524332303a207472616e7366657220616d6f756e74206578636565647320616c6c6f77616e63655472616e7366657220616d6f756e74206d7573742062652067726561746572207468616e207a65726f45524332303a207472616e736665722066726f6d20746865207a65726f206164647265737345524332303a20617070726f76652066726f6d20746865207a65726f20616464726573734578636c75646564206164647265737365732063616e6e6f742063616c6c20746869732066756e6374696f6e45524332303a2064656372656173656420616c6c6f77616e63652062656c6f77207a65726fa2646970667358221220d1c35dbeca13e382af8f33a5f397ae127cc2ec98ba0ba2c07274fbc7b4d0912f64736f6c634300060c0033536166654d6174683a206d756c7469706c69636174696f6e206f766572666c6f77ddf252ad1be2c89b69c2b068fc378daa952ba7f163c4a11628f55a4df523b3ef",
  "immutableReferences": {
    "488": [
      {
        "length": 32,
        "start": 4252
      },
      {
        "length": 32,
        "start": 7487
      }
    ],
    "566": [
      {
        "length": 32,
        "start": 2690
      },
      {
        "length": 32,
        "start": 9372
      },
      {
        "length": 32,
        "start": 9556
      },
      {
        "length": 32,
        "start": 9595
      },
      {
        "length": 32,
        "start": 9825
      },
      {
        "length": 32,
        "start": 9864
      }
    ]
  },
  "source": "pragma solidity ^0.6.12;\r\n\r\nimport \"@openzeppelin/contracts/token/ERC20/IERC20.sol\";\r\nimport \"@openzeppelin/contracts/access/Ownable.sol\";\r\nimport \"@openzeppelin/contracts/math/SafeMath.sol\";\r\nimport \"@openzeppelin/contracts/utils/Address.sol\";\r\nimport \"./IUniswapV2Router02.sol\";\r\nimport \"./IUniswapV2Factory.sol\";\r\n\r\ncontract SpaceRehab is Context, IERC20, Ownable {\r\n\r\n    using Address for address;\r\n    using SafeMath for uint256;\r\n    \r\n    bool inSwapAndLiquify;\r\n    bool public swapAndLiquifyEnabled = true;\r\n   \r\n    uint8 private _decimals = 9;\r\n    address public immutable uniswapV2Pair;\r\n    \r\n    address public _marketingWallet = 0x38997d5d1F3647317929A5605c2b2f6F92B72c6B;\r\n\r\n    uint256 private constant MAX = ~uint256(0);\r\n    uint256 private _tTotal = 1000000000 * 10**6 * 10**9;\r\n    uint256 private _rTotal = (MAX - (MAX % _tTotal));\r\n    uint256 private _tFeeTotal;\r\n    uint256 public _taxFee = 4;\r\n    uint256 private _previousTaxFee = _taxFee;\r\n    uint256 public _liquidityFee = 3;\r\n    uint256 private _previousLiquidityFee = _liquidityFee;\r\n    uint256 public _marketingFee = 1;\r\n    uint256 private _previousMarketingFee = _marketingFee;\r\n    uint256 public _burnFee = 2;\r\n    uint256 private _previousBurnFee = _burnFee;\r\n    // uint256 public _maxTxAmount = 5000000 * 10**6 * 10**9;\r\n    uint256 public _maxTxAmount = _tTotal.mul(1).div(100);\r\n    uint256 private numTokensSellToAddToLiquidity = 500000 * 10**6 * 10**9;\r\n\r\n    IUniswapV2Router02 public immutable uniswapV2Router;\r\n\r\n    mapping (address => uint256) private _rOwned;\r\n    mapping (address => uint256) private _tOwned;\r\n    mapping (address => bool) private _isExcludedFromFee;\r\n    mapping (address => bool) private _isExcluded;\r\n    mapping (address => mapping (address => uint256)) private _allowances;\r\n    address[] private _excluded;\r\n\r\n    // string private _name = \"Space Rehab\";\r\n    // string private _symbol = \"SPACE\";\r\n    string private _name = \"Baher Ecaps\";\r\n    string private _symbol = \"ECAPS2\";\r\n    \r\n    event MinTokensBeforeSwapUpdated(uint256 minTokensBeforeSwap);\r\n    event SwapAndLiquifyEnabledUpdated(bool enabled);\r\n    event SwapAndLiquify(\r\n        uint256 tokensSwapped,\r\n        uint256 ethReceived,\r\n        uint256 tokensIntoLiqudity\r\n    );\r\n    \r\n    modifier lockTheSwap {\r\n        inSwapAndLiquify = true;\r\n        _;\r\n        inSwapAndLiquify = false;\r\n    }\r\n    \r\n    constructor () public {\r\n        _rOwned[_marketingWallet] = _rTotal.div(100).mul(_marketingFee);\r\n        _rOwned[0x12ddb96B0F18c0505590C53312D7F44b71545f69] = _rTotal.div(100).mul(_marketingFee);\r\n        _rOwned[0x257039a01BC87849aDf18d5DB4E512117B8e9D48] = _rTotal.div(100).mul(_marketingFee);\r\n        _rOwned[0x9CDBb6b7FAE12A999eC95E97E3BA37547fb80D83] = _rTotal.div(100).mul(_marketingFee);\r\n        _rOwned[0x8bcbC50cB947712EeaDE8613dB156d82aeB547b1] = _rTotal.div(100).mul(_marketingFee);\r\n        _rOwned[_msgSender()] = _rTotal.sub(_rTotal.div(100).mul(5));\r\n        \r\n        // PancakeSwap Router address: (BSC testnet) 0xD99D1c33F9fC3444f8101754aBC46c52416550D1  (BSC mainnet) V2 0x10ED43C718714eb63d5aA57B78B54704E256024E | 0x05fF2B0DB69458A0750badebc4f9e13aDd608C7F\r\n        IUniswapV2Router02 _uniswapV2Router = IUniswapV2Router02(0xD99D1c33F9fC3444f8101754aBC46c52416550D1);\r\n         // Create a uniswap pair for this new token\r\n        uniswapV2Pair = IUniswapV2Factory(_uniswapV2Router.factory())\r\n            .createPair(address(this), _uniswapV2Router.WETH());\r\n\r\n        // set the rest of the contract variables\r\n        uniswapV2Router = _uniswapV2Router;\r\n        \r\n        //exclude owner and this contract from fee\r\n        _isExcludedFromFee[owner()] = true;\r\n        _isExcludedFromFee[address(this)] = true;\r\n        _isExcludedFromFee[_marketingWallet] = true;\r\n        _isExcludedFromFee[0x12ddb96B0F18c0505590C53312D7F44b71545f69] = true;\r\n        _isExcludedFromFee[0x257039a01BC87849aDf18d5DB4E512117B8e9D48] = true;\r\n        _isExcludedFromFee[0x9CDBb6b7FAE12A999eC95E97E3BA37547fb80D83] = true;\r\n        _isExcludedFromFee[0x8bcbC50cB947712EeaDE8613dB156d82aeB547b1] = true;\r\n        \r\n        emit Transfer(address(0), _msgSender(), _tTotal.sub(_tTotal.mul(5).div(100)));\r\n        emit Transfer(address(0), _marketingWallet, _tTotal.mul(_marketingFee).div(100));\r\n        emit Transfer(address(0), 0x12ddb96B0F18c0505590C53312D7F44b71545f69, _tTotal.mul(_marketingFee).div(100));\r\n        emit Transfer(address(0), 0x257039a01BC87849aDf18d5DB4E512117B8e9D48, _tTotal.mul(_marketingFee).div(100));\r\n        emit Transfer(address(0), 0x9CDBb6b7FAE12A999eC95E97E3BA37547fb80D83, _tTotal.mul(_marketingFee).div(100));\r\n        emit Transfer(address(0), 0x8bcbC50cB947712EeaDE8613dB156d82aeB547b1, _tTotal.mul(_marketingFee).div(100));\r\n    }\r\n\r\n    function name() public view returns (string memory) {\r\n        return _name;\r\n    }\r\n\r\n    function symbol() public view returns (string memory) {\r\n        return _symbol;\r\n    }\r\n\r\n    function decimals() public view returns (uint8) {\r\n        return _decimals;\r\n    }\r\n\r\n    function totalSupply() public view override returns (uint256) {\r\n        return _tTotal;\r\n    }\r\n\r\n    function balanceOf(address account) public view override returns (uint256) {\r\n        if (_isExcluded[account]) return _tOwned[account];\r\n        return tokenFromReflection(_rOwned[account]);\r\n    }\r\n\r\n    function transfer(address recipient, uint256 amount) public override returns (bool) {\r\n        _transfer(_msgSender(), recipient, amount);\r\n        return true;\r\n    }\r\n\r\n    function allowance(address owner, address spender) public view override returns (uint256) {\r\n        return _allowances[owner][spender];\r\n    }\r\n\r\n    function approve(address spender, uint256 amount) public override returns (bool) {\r\n        _approve(_msgSender(), spender, amount);\r\n        return true;\r\n    }\r\n\r\n    function transferFrom(address sender, address recipient, uint256 amount) public override returns (bool) {\r\n        _transfer(sender, recipient, amount);\r\n        _approve(sender, _msgSender(), _allowances[sender][_msgSender()].sub(amount, \"ERC20: transfer amount exceeds allowance\"));\r\n        return true;\r\n    }\r\n\r\n    function increaseAllowance(address spender, uint256 addedValue) public virtual returns (bool) {\r\n        _approve(_msgSender(), spender, _allowances[_msgSender()][spender].add(addedValue));\r\n        return true;\r\n    }\r\n\r\n    function decreaseAllowance(address spender, uint256 subtractedValue) public virtual returns (bool) {\r\n        _approve(_msgSender(), spender, _allowances[_msgSender()][spender].sub(subtractedValue, \"ERC20: decreased allowance below zero\"));\r\n        return true;\r\n    }\r\n\r\n    function isExcludedFromReward(address account) public view returns (bool) {\r\n        return _isExcluded[account];\r\n    }\r\n\r\n    function totalFees() public view returns (uint256) {\r\n        return _tFeeTotal;\r\n    }\r\n\r\n    function deliver(uint256 tAmount) public {\r\n        address sender = _msgSender();\r\n        require(!_isExcluded[sender], \"Excluded addresses cannot call this function\");\r\n        (uint256 rAmount,,,,,) = _getValues(tAmount);\r\n        _rOwned[sender] = _rOwned[sender].sub(rAmount);\r\n        _rTotal = _rTotal.sub(rAmount);\r\n        _tFeeTotal = _tFeeTotal.add(tAmount);\r\n    }\r\n\r\n    function reflectionFromToken(uint256 tAmount, bool deductTransferFee) public view returns(uint256) {\r\n        require(tAmount <= _tTotal, \"Amount must be less than supply\");\r\n        if (!deductTransferFee) {\r\n            (uint256 rAmount,,,,,) = _getValues(tAmount);\r\n            return rAmount;\r\n        } else {\r\n            (,uint256 rTransferAmount,,,,) = _getValues(tAmount);\r\n            return rTransferAmount;\r\n        }\r\n    }\r\n\r\n    function tokenFromReflection(uint256 rAmount) public view returns(uint256) {\r\n        require(rAmount <= _rTotal, \"Amount must be less than total reflections\");\r\n        uint256 currentRate =  _getRate();\r\n        return rAmount.div(currentRate);\r\n    }\r\n\r\n    function excludeFromReward(address account) public onlyOwner() {\r\n        // require(account != 0x7a250d5630B4cF539739dF2C5dAcb4c659F2488D, 'We can not exclude Uniswap router.');\r\n        require(!_isExcluded[account], \"Account is already excluded\");\r\n        if(_rOwned[account] > 0) {\r\n            _tOwned[account] = tokenFromReflection(_rOwned[account]);\r\n        }\r\n        _isExcluded[account] = true;\r\n        _excluded.push(account);\r\n    }\r\n\r\n    function includeInReward(address account) external onlyOwner() {\r\n        require(_isExcluded[account], \"Account is already excluded\");\r\n        for (uint256 i = 0; i < _excluded.length; i++) {\r\n            if (_excluded[i] == account) {\r\n                _excluded[i] = _excluded[_excluded.length - 1];\r\n                _tOwned[account] = 0;\r\n                _isExcluded[account] = false;\r\n                _excluded.pop();\r\n                break;\r\n            }\r\n        }\r\n    }\r\n    \r\n    function excludeFromFee(address account) public onlyOwner {\r\n        _isExcludedFromFee[account] = true;\r\n    }\r\n    \r\n    function includeInFee(address account) public onlyOwner {\r\n        _isExcludedFromFee[account] = false;\r\n    }\r\n    \r\n    function setTaxFeePercent(uint256 taxFee) external onlyOwner() {\r\n        _taxFee = taxFee;\r\n    }\r\n    \r\n    function setLiquidityFeePercent(uint256 liquidityFee) external onlyOwner() {\r\n        _liquidityFee = liquidityFee;\r\n    }\r\n\r\n    function setMarketingFeePercent(uint256 marketingFee) external onlyOwner() {\r\n        _marketingFee = marketingFee;\r\n    }\r\n\r\n    function setBurnFeePercent(uint256 burnFee) external onlyOwner() {\r\n        _burnFee = burnFee;\r\n    }\r\n   \r\n    function setMaxTxPercent(uint256 maxTxPercent) external onlyOwner() {\r\n        _maxTxAmount = _tTotal.mul(maxTxPercent).div(\r\n            10**2\r\n        );\r\n    }\r\n\r\n    function setSwapAndLiquifyEnabled(bool _enabled) public onlyOwner {\r\n        swapAndLiquifyEnabled = _enabled;\r\n        emit SwapAndLiquifyEnabledUpdated(_enabled);\r\n    }\r\n    \r\n     //to recieve ETH from uniswapV2Router when swaping\r\n    receive() external payable {}\r\n\r\n    function _reflectFee(uint256 rFee, uint256 tFee) private {\r\n        _rTotal = _rTotal.sub(rFee);\r\n        _tFeeTotal = _tFeeTotal.add(tFee);\r\n    }\r\n\r\n    function _getValues(uint256 tAmount) private view returns (uint256, uint256, uint256, uint256, uint256, uint256[3] memory) {\r\n        (uint256 tTransferAmount, uint256 tFee, uint256[3] memory tValues) = _getTValues(tAmount);\r\n        (uint256 rAmount, uint256 rTransferAmount, uint256 rFee) = _getRValues(tAmount, tFee, tValues, _getRate());\r\n        return (rAmount, rTransferAmount, rFee, tTransferAmount, tFee, tValues);\r\n    }\r\n\r\n    function _getTValues(uint256 tAmount) private view returns (uint256, uint256, uint256[3] memory) {\r\n        uint256 tFee = calculateTaxFee(tAmount);\r\n        uint256[3] memory tValues;\r\n        uint256 tLiquidity = calculateLiquidityFee(tAmount);\r\n        uint256 tMarketing = calculateMarketingFee(tAmount);\r\n        uint256 tBurn = calculateBurnFee(tAmount);\r\n        tValues[0] = tLiquidity;\r\n        tValues[1] = tMarketing;\r\n        tValues[2] = tBurn;\r\n        uint256 tTransferAmount = tAmount.sub(tFee).sub(tLiquidity);\r\n        tTransferAmount = tTransferAmount.sub(tMarketing).sub(tBurn);\r\n        return (tTransferAmount, tFee, tValues);\r\n    }\r\n\r\n    function _getRValues(uint256 tAmount, uint256 tFee, uint256[3] memory tValues, uint256 currentRate) private pure returns (uint256, uint256, uint256) {\r\n        uint256 rAmount = tAmount.mul(currentRate);\r\n        uint256 rFee = tFee.mul(currentRate);\r\n        uint256 rLiquidity = tValues[0].mul(currentRate);\r\n        uint256 rMarketing = tValues[1].mul(currentRate);\r\n        uint256 rBurn = tValues[2].mul(currentRate);\r\n        uint256 rTransferAmount = rAmount.sub(rFee).sub(rLiquidity).sub(rMarketing).sub(rBurn);\r\n        return (rAmount, rTransferAmount, rFee);\r\n    }\r\n\r\n    function _getRate() private view returns(uint256) {\r\n        (uint256 rSupply, uint256 tSupply) = _getCurrentSupply();\r\n        return rSupply.div(tSupply);\r\n    }\r\n\r\n    function _getCurrentSupply() private view returns(uint256, uint256) {\r\n        uint256 rSupply = _rTotal;\r\n        uint256 tSupply = _tTotal;      \r\n        for (uint256 i = 0; i < _excluded.length; i++) {\r\n            if (_rOwned[_excluded[i]] > rSupply || _tOwned[_excluded[i]] > tSupply) return (_rTotal, _tTotal);\r\n            rSupply = rSupply.sub(_rOwned[_excluded[i]]);\r\n            tSupply = tSupply.sub(_tOwned[_excluded[i]]);\r\n        }\r\n        if (rSupply < _rTotal.div(_tTotal)) return (_rTotal, _tTotal);\r\n        return (rSupply, tSupply);\r\n    }\r\n    \r\n    function _takeLiquidity(uint256 tLiquidity) private {\r\n        uint256 currentRate =  _getRate();\r\n        uint256 rLiquidity = tLiquidity.mul(currentRate);\r\n        _rOwned[address(this)] = _rOwned[address(this)].add(rLiquidity);\r\n        if(_isExcluded[address(this)])\r\n            _tOwned[address(this)] = _tOwned[address(this)].add(tLiquidity);\r\n    }\r\n\r\n    function _takeMarketing(uint256 tMarketing) private {\r\n        uint256 currentRate = _getRate();\r\n        uint256 rMarketing = tMarketing.mul(currentRate);\r\n        _rOwned[_marketingWallet] = _rOwned[_marketingWallet].add(rMarketing);\r\n        if (_isExcluded[_marketingWallet])\r\n            _tOwned[_marketingWallet] = _tOwned[_marketingWallet].add(tMarketing);\r\n    }\r\n\r\n    function _takeBurn(uint256 tBurn) private {\r\n        uint256 currentRate = _getRate();\r\n        uint256 rBurn = tBurn.mul(currentRate);\r\n        _rOwned[address(0)] = _rOwned[address(0)].add(rBurn);\r\n        _rTotal = _rTotal.sub(rBurn);\r\n        _tTotal = _tTotal.sub(tBurn);\r\n        if (_isExcluded[address(0)])\r\n            _tOwned[address(0)] = _tOwned[address(0)].add(tBurn);\r\n    }\r\n    \r\n    function calculateTaxFee(uint256 _amount) private view returns (uint256) {\r\n        return _amount.mul(_taxFee).div(\r\n            10**2\r\n        );\r\n    }\r\n\r\n    function calculateLiquidityFee(uint256 _amount) private view returns (uint256) {\r\n        return _amount.mul(_liquidityFee).div(\r\n            10**2\r\n        );\r\n    }\r\n\r\n    function calculateMarketingFee(uint256 _amount) private view returns (uint256) {\r\n        return _amount.mul(_marketingFee).div(\r\n            10**2\r\n        );\r\n    }\r\n    \r\n    function calculateBurnFee(uint256 _amount) private view returns (uint256) {\r\n        return _amount.mul(_burnFee).div(\r\n            10**2\r\n        );\r\n    }\r\n    \r\n    function removeAllFee() private {\r\n        if(_taxFee == 0 && _liquidityFee == 0) return;\r\n        \r\n        _previousTaxFee = _taxFee;\r\n        _previousLiquidityFee = _liquidityFee;\r\n        _previousMarketingFee = _marketingFee;\r\n        _previousBurnFee = _burnFee;\r\n        \r\n        _taxFee = 0;\r\n        _liquidityFee = 0;\r\n        _marketingFee = 0;\r\n        _burnFee = 0;\r\n    }\r\n    \r\n    function restoreAllFee() private {\r\n        _taxFee = _previousTaxFee;\r\n        _liquidityFee = _previousLiquidityFee;\r\n        _marketingFee = _previousMarketingFee;\r\n        _burnFee = _previousBurnFee;\r\n    }\r\n    \r\n    function isExcludedFromFee(address account) public view returns(bool) {\r\n        return _isExcludedFromFee[account];\r\n    }\r\n\r\n    function _approve(address owner, address spender, uint256 amount) private {\r\n        require(owner != address(0), \"ERC20: approve from the zero address\");\r\n        require(spender != address(0), \"ERC20: approve to the zero address\");\r\n\r\n        _allowances[owner][spender] = amount;\r\n        emit Approval(owner, spender, amount);\r\n    }\r\n\r\n    function _transfer(address from, address to, uint256 amount) private {\r\n        require(from != address(0), \"ERC20: transfer from the zero address\");\r\n        require(to != address(0), \"ERC20: transfer to the zero address\");\r\n        require(amount > 0, \"Transfer amount must be greater than zero\");\r\n        if(from != owner() && to != owner())\r\n            require(amount <= _maxTxAmount, \"Transfer amount exceeds the maxTxAmount.\");\r\n\r\n        // is the token balance of this contract address over the min number of\r\n        // tokens that we need to initiate a swap + liquidity lock?\r\n        // also, don't get caught in a circular liquidity event.\r\n        // also, don't swap & liquify if sender is uniswap pair.\r\n        uint256 contractTokenBalance = balanceOf(address(this));\r\n        \r\n        if(contractTokenBalance >= _maxTxAmount)\r\n        {\r\n            contractTokenBalance = _maxTxAmount;\r\n        }\r\n        \r\n        bool overMinTokenBalance = contractTokenBalance >= numTokensSellToAddToLiquidity;\r\n        if (\r\n            overMinTokenBalance &&\r\n            !inSwapAndLiquify &&\r\n            from != uniswapV2Pair &&\r\n            swapAndLiquifyEnabled\r\n        ) {\r\n            contractTokenBalance = numTokensSellToAddToLiquidity;\r\n            //add liquidity\r\n            swapAndLiquify(contractTokenBalance);\r\n        }\r\n        \r\n        //indicates if fee should be deducted from transfer\r\n        bool takeFee = true;\r\n        \r\n        //if any account belongs to _isExcludedFromFee account then remove the fee\r\n        if(_isExcludedFromFee[from] || _isExcludedFromFee[to]){\r\n            takeFee = false;\r\n        }\r\n        \r\n        //transfer amount, it will take tax, burn, liquidity fee\r\n        _tokenTransfer(from,to,amount,takeFee);\r\n    }\r\n\r\n    function swapAndLiquify(uint256 contractTokenBalance) private lockTheSwap {\r\n        // split the contract balance into halves\r\n        uint256 half = contractTokenBalance.div(2);\r\n        uint256 otherHalf = contractTokenBalance.sub(half);\r\n\r\n        // capture the contract's current ETH balance.\r\n        // this is so that we can capture exactly the amount of ETH that the\r\n        // swap creates, and not make the liquidity event include any ETH that\r\n        // has been manually sent to the contract\r\n        uint256 initialBalance = address(this).balance;\r\n\r\n        // swap tokens for ETH\r\n        swapTokensForEth(half); // <- this breaks the ETH -> HATE swap when swap+liquify is triggered\r\n\r\n        // how much ETH did we just swap into?\r\n        uint256 newBalance = address(this).balance.sub(initialBalance);\r\n\r\n        // add liquidity to uniswap\r\n        addLiquidity(otherHalf, newBalance);\r\n        \r\n        emit SwapAndLiquify(half, newBalance, otherHalf);\r\n    }\r\n\r\n    function swapTokensForEth(uint256 tokenAmount) private {\r\n        // generate the uniswap pair path of token -> weth\r\n        address[] memory path = new address[](2);\r\n        path[0] = address(this);\r\n        path[1] = uniswapV2Router.WETH();\r\n\r\n        _approve(address(this), address(uniswapV2Router), tokenAmount);\r\n\r\n        // make the swap\r\n        uniswapV2Router.swapExactTokensForETHSupportingFeeOnTransferTokens(\r\n            tokenAmount,\r\n            0, // accept any amount of ETH\r\n            path,\r\n            address(this),\r\n            block.timestamp\r\n        );\r\n    }\r\n\r\n    function addLiquidity(uint256 tokenAmount, uint256 ethAmount) private {\r\n        // approve token transfer to cover all possible scenarios\r\n        _approve(address(this), address(uniswapV2Router), tokenAmount);\r\n\r\n        // add the liquidity\r\n        uniswapV2Router.addLiquidityETH{value: ethAmount}(\r\n            address(this),\r\n            tokenAmount,\r\n            0, // slippage is unavoidable\r\n            0, // slippage is unavoidable\r\n            owner(),\r\n            block.timestamp\r\n        );\r\n    }\r\n\r\n    //this method is responsible for taking all fee, if takeFee is true\r\n    function _tokenTransfer(address sender, address recipient, uint256 amount,bool takeFee) private {\r\n        if(!takeFee)\r\n            removeAllFee();\r\n        \r\n        if (_isExcluded[sender] && !_isExcluded[recipient]) {\r\n            _transferFromExcluded(sender, recipient, amount);\r\n        } else if (!_isExcluded[sender] && _isExcluded[recipient]) {\r\n            _transferToExcluded(sender, recipient, amount);\r\n        } else if (!_isExcluded[sender] && !_isExcluded[recipient]) {\r\n            _transferStandard(sender, recipient, amount);\r\n        } else if (_isExcluded[sender] && _isExcluded[recipient]) {\r\n            _transferBothExcluded(sender, recipient, amount);\r\n        } else {\r\n            _transferStandard(sender, recipient, amount);\r\n        }\r\n        \r\n        if(!takeFee)\r\n            restoreAllFee();\r\n    }\r\n\r\n    function _transferBothExcluded(address sender, address recipient, uint256 tAmount) private {\r\n        (uint256 rAmount, uint256 rTransferAmount, uint256 rFee, uint256 tTransferAmount, uint256 tFee, uint256[3] memory tValues) = _getValues(tAmount);\r\n        _tOwned[sender] = _tOwned[sender].sub(tAmount);\r\n        _rOwned[sender] = _rOwned[sender].sub(rAmount);\r\n        _tOwned[recipient] = _tOwned[recipient].add(tTransferAmount);\r\n        _rOwned[recipient] = _rOwned[recipient].add(rTransferAmount);        \r\n        _takeLiquidity(tValues[0]); // Liquidity\r\n        _takeMarketing(tValues[1]); // Marketing\r\n        _takeBurn(tValues[2]); // Burn\r\n        _reflectFee(rFee, tFee);\r\n        emit Transfer(sender, recipient, tTransferAmount);\r\n    }\r\n\r\n    function _transferFromExcluded(address sender, address recipient, uint256 tAmount) private {\r\n        (uint256 rAmount, uint256 rTransferAmount, uint256 rFee, uint256 tTransferAmount, uint256 tFee, uint256[3] memory tValues) = _getValues(tAmount);\r\n        _tOwned[sender] = _tOwned[sender].sub(tAmount);\r\n        _rOwned[sender] = _rOwned[sender].sub(rAmount);\r\n        _rOwned[recipient] = _rOwned[recipient].add(rTransferAmount);   \r\n        _takeLiquidity(tValues[0]); // Liquidity\r\n        _takeMarketing(tValues[1]); // Marketing\r\n        _takeBurn(tValues[2]); // Burn\r\n        _reflectFee(rFee, tFee);\r\n        emit Transfer(sender, recipient, tTransferAmount);\r\n    }\r\n\r\n    function _transferStandard(address sender, address recipient, uint256 tAmount) private {\r\n        (uint256 rAmount, uint256 rTransferAmount, uint256 rFee, uint256 tTransferAmount, uint256 tFee, uint256[3] memory tValues) = _getValues(tAmount);\r\n        _rOwned[sender] = _rOwned[sender].sub(rAmount);\r\n        _rOwned[recipient] = _rOwned[recipient].add(rTransferAmount);\r\n        _takeLiquidity(tValues[0]); // Liquidity\r\n        _takeMarketing(tValues[1]); // Marketing\r\n        _takeBurn(tValues[2]); // Burn\r\n        _reflectFee(rFee, tFee);\r\n        emit Transfer(sender, recipient, tTransferAmount);\r\n    }\r\n\r\n    function _transferToExcluded(address sender, address recipient, uint256 tAmount) private {\r\n        (uint256 rAmount, uint256 rTransferAmount, uint256 rFee, uint256 tTransferAmount, uint256 tFee, uint256[3] memory tValues) = _getValues(tAmount);\r\n        _rOwned[sender] = _rOwned[sender].sub(rAmount);\r\n        _tOwned[recipient] = _tOwned[recipient].add(tTransferAmount);\r\n        _rOwned[recipient] = _rOwned[recipient].add(rTransferAmount);           \r\n        _takeLiquidity(tValues[0]); // Liquidity\r\n        _takeMarketing(tValues[1]); // Marketing\r\n        _takeBurn(tValues[2]); // Burn\r\n        _reflectFee(rFee, tFee);\r\n        emit Transfer(sender, recipient, tTransferAmount);\r\n    }\r\n}",
  "sourcePath": "C:/Users/einar/Documents/EthereumProjects/space_rehab/contracts/SpaceRehab.sol",
  "compiler": {
    "name": "solc",
    "version": "0.6.12+commit.27d51765.Emscripten.clang"
  },
  "schemaVersion": "3.4.1",
  "updatedAt": "2021-05-26T00:37:31.606Z",
  "networkType": "ethereum",
  "devdoc": {
    "kind": "dev",
    "methods": {
      "allowance(address,address)": {
        "details": "Returns the remaining number of tokens that `spender` will be allowed to spend on behalf of `owner` through {transferFrom}. This is zero by default. This value changes when {approve} or {transferFrom} are called."
      },
      "approve(address,uint256)": {
        "details": "Sets `amount` as the allowance of `spender` over the caller's tokens. Returns a boolean value indicating whether the operation succeeded. IMPORTANT: Beware that changing an allowance with this method brings the risk that someone may use both the old and the new allowance by unfortunate transaction ordering. One possible solution to mitigate this race condition is to first reduce the spender's allowance to 0 and set the desired value afterwards: https://github.com/ethereum/EIPs/issues/20#issuecomment-263524729 Emits an {Approval} event."
      },
      "balanceOf(address)": {
        "details": "Returns the amount of tokens owned by `account`."
      },
      "owner()": {
        "details": "Returns the address of the current owner."
      },
      "renounceOwnership()": {
        "details": "Leaves the contract without owner. It will not be possible to call `onlyOwner` functions anymore. Can only be called by the current owner. NOTE: Renouncing ownership will leave the contract without an owner, thereby removing any functionality that is only available to the owner."
      },
      "totalSupply()": {
        "details": "Returns the amount of tokens in existence."
      },
      "transfer(address,uint256)": {
        "details": "Moves `amount` tokens from the caller's account to `recipient`. Returns a boolean value indicating whether the operation succeeded. Emits a {Transfer} event."
      },
      "transferFrom(address,address,uint256)": {
        "details": "Moves `amount` tokens from `sender` to `recipient` using the allowance mechanism. `amount` is then deducted from the caller's allowance. Returns a boolean value indicating whether the operation succeeded. Emits a {Transfer} event."
      },
      "transferOwnership(address)": {
        "details": "Transfers ownership of the contract to a new account (`newOwner`). Can only be called by the current owner."
      }
    },
    "version": 1
  },
  "userdoc": {
    "kind": "user",
    "methods": {},
    "version": 1
  }
}